:020000040800F2
:10000000000002207DB500083905000845050008FC
:100010004D050008550500085D05000800000000BA
:10002000000000000000000000000000B9330008DC
:10003000650500080000000099350008E535000856
:10004000C1B50008C1B50008C1B50008C1B50008B8
:10005000C1B50008C1B50008C1B50008C1B50008A8
:10006000C1B50008C1B50008C1B50008C1B5000898
:10007000C1B50008C1B50008C1B50008C1B5000888
:10008000C1B50008C1B50008C1B50008C1B5000878
:10009000C1B50008C1B50008C1B50008C1B5000868
:1000A000C1B50008C1B50008C1B50008C1B5000858
:1000B000C1B50008C1B50008C1B50008C1B5000848
:1000C000C1B50008C1B50008C1B50008C1B5000838
:1000D000C1B50008C1B50008C1B50008C1B5000828
:1000E000C1B50008C1B50008C1B50008C1B5000818
:1000F000C1B50008C1B50008C1B50008C1B5000808
:10010000C1B50008C1B50008C1B50008C1B50008F7
:10011000C1B50008C1B50008C1B50008C1B50008E7
:10012000C1B50008C1B50008C1B50008C1B50008D7
:10013000C1B50008C1B50008C1B50008C1B50008C7
:10014000C1B50008C1B50008C1B50008C1B50008B7
:10015000C1B50008C1B50008C1B50008C1B50008A7
:10016000C1B50008C1B50008C1B50008C1B5000897
:10017000C1B50008C1B50008C1B50008C1B5000887
:10018000C1B50008C1B50008C1B50008C1B5000877
:10019000C1B50008C1B50008C1B50008C1B5000867
:0C01A000C1B50008C1B50008C1B50008D9
:1001B000044B05481B1A062B02D9044B03B1184700
:1001C000704700BF7B04002078040020000000007E
:1001D00005490648091A891001EBD171491002D06E
:1001E000034B03B1184770477804002078040020BF
:1001F0000000000010B5064C237843B9FFF7D8FF84
:10020000044B13B10448AFF300800123237010BDE9
:10021000780400200000000074CD000808B5084BE9
:100220001BB108480849AFF300800848036813B9B8
:10023000BDE80840CCE7064B002BF9D09847F7E71C
:100240000000000074CD00087C040020740400202D
:1002500000000000134B002B08BF114B9D46A3F577
:10026000803A00218B460F461148124A121A0BF0B1
:10027000FDF90D4B002B00D098470C4B002B00D004
:1002800098470020002104000D000B480BF09AF95C
:100290000BF0C4F92000290000F010F80BF098F9D9
:1002A0000000080000000000000000000000000046
:1002B00078040020604B0120F1B5000880B582B0C1
:1002C00002AF00F03FF8002008F07CFC012008F0AD
:1002D00079FC4FF4FA700421002203F0BDFF0246BE
:1002E000114B1A6004230093002301930F48104917
:1002F0008222002305F094FA032300930023019344
:100300000C480D498222002305F08AFA022300934B
:100310000023019309480A498222002305F080FA4C
:1003200006F0CCF8FEE700BFE4320120FD03000830
:1003300030B900084D0400083CB9000895040008D5
:100340004CB9000880B500AF4020012101F0FEFB50
:100350000A4B4FF4C0421A60084B01221A71074B36
:1003600000229A71054B03225A71044B0022DA7164
:100370000348024900F06EFE80BD00BFE832012054
:100380000018024080B400AF044A044B5B6943F498
:1003900080435361BD465DF8047B704700180240FE
:1003A00080B400AF0549054B5A694BF6FF73134003
:1003B0004B61BD465DF8047B704700BF00180240EA
:1003C00080B400AF044A044B5B6943F400535361AB
:1003D000BD465DF8047B70470018024080B400AF52
:1003E0000549054B5A694DF6FF7313404B61BD46F5
:1003F0005DF8047B704700BF0018024080B584B0F0
:1004000000AF78600123FB600E4B1A6807F10C0304
:10041000104619460022002304F0B0F80A4B1A686F
:10042000FB681344084A1360FB680133FB60FB68F8
:1004300042F21072934201D90123FB60022005F0C1
:10044000BFFCE1E7E43201209404002080B584B0D1
:1004500000AF78600023FB6005E00C4B1A68FB6876
:1004600013440A4A13600A4B1A6807F10C0310463A
:1004700019466422002304F0C1FB0346012BECD093
:100480004FF47A7005F09CFCE6E700BF980400206A
:10049000E432012080B582B000AF78600F4B1B685A
:1004A000002B12D00D4B1A680D4B1B689A420CD1D1
:1004B000FFF768FFFFF792FF42F2107005F080FC33
:1004C000FFF76EFFFFF77CFF07E0FFF779FF42F2CF
:1004D000107005F075FCFFF781FFDFE7980400203E
:1004E0009404002080B400AFBD465DF8047B7047E3
:1004F00080B483B000AF4FF0500383F31188BFF393
:100500006F8FBFF34F8F7B60FEE700BF80B400AFFB
:10051000BD465DF8047B704780B485B000AF78605D
:1005200039604FF0500383F31188BFF36F8FBFF32F
:100530004F8FFB60FEE700BF80B400AFBD465DF8A3
:10054000047B704780B400AFFEE700BF80B400AF0B
:10055000FEE700BF80B400AFFEE700BF80B400AF8D
:10056000FEE700BF80B400AFBD465DF8047B704776
:1005700080B500AF114A114B1B6843F001031360B3
:100580000E4B00229A600D4A0C4B1B6823F08473BB
:1005900023F480331360094B094A5A60074A074B1A
:1005A0001B6823F480231360044B0022DA6000F000
:1005B00087F8044B4FF000629A6080BD003802401B
:1005C0001030002400ED00E080B487B000AF0023BD
:1005D0003B6100237B610223FB600023BB6002239D
:1005E0007B60324B9B6803F00C033B613B69042B3F
:1005F00007D0082B09D0002B3FD12D4B2D4A1A6074
:100600003FE02B4B2C4A1A603BE0284B5B6803F41D
:1006100080039B0DBB60254B5B6803F03F037B6051
:10062000BB68002B0DD0244A7B68B2FBF3F21F4B52
:10063000596847F6C0730B409B0903FB02F37B61CB
:100640000CE01C4A7B68B2FBF3F2184B596847F682
:10065000C0730B409B0903FB02F37B61134B5B6888
:1006600003F440331B0C01335B00FB607A69FB68C9
:10067000B2FBF3F30E4A136003E00D4B0D4A1A6010
:1006800000BF0A4B9B6803F0F0031B090B4AD35CC5
:10069000DBB23B61064B1A683B6922FA03F3044A5A
:1006A00013601C37BD465DF8047B7047003802407C
:1006B000040000200024F40000127A00080000204A
:1006C00080B483B000AF00237B6000233B60354AD9
:1006D000344B1B6843F480331360324B1B6803F4C4
:1006E00000333B607B6801337B603B68002B03D1A8
:1006F0007B68B3F5A04FF0D12A4B1B6803F400339D
:10070000002B02D001233B6001E000233B603B68EB
:10071000012B42D1234A234B1B6C43F080531364BB
:10072000214A214B1B6843F4404313601D4A1D4B73
:100730009B6893601B4A1B4B9B6843F40043936088
:10074000184A184B9B6843F4A0539360154B174A03
:100750005A60144A134B1B6843F08073136000BF48
:10076000104B1B6803F00073002BF9D0104B40F2C4
:1007700005621A600B4A0B4B9B6823F003039360DE
:10078000084A084B9B6843F00203936000BF054B87
:100790009B6803F00C03082BF9D10C37BD465DF8BC
:1007A000047B704700380240007000400854400746
:1007B000003C024080B584B000AF0346FB71FB797A
:1007C000104A52F823301846012101F0BFF9FB7995
:1007D0000D4A32F81330BB6001233B730023BB7317
:1007E0000123FB7302237B73FB79084A52F8232011
:1007F00007F108031046194600F02CFC1037BD46DF
:1008000080BD00BF60B900085CB900081800002076
:1008100080B483B000AF0346FB71FB79064A52F8FF
:100820002330FA79054931F812201A830C37BD4676
:100830005DF8047B704700BF180000205CB9000819
:1008400080B483B000AF0346FB71FB79064A52F8CF
:100850002330FA79054931F812205A830C37BD4606
:100860005DF8047B704700BF180000205CB90008E9
:1008700080B483B000AF0346FB71FB79094A52F89C
:100880002330FA79074951F822205269F97906484C
:1008900030F811104A405A610C37BD465DF8047BB0
:1008A000704700BF180000205CB9000880B588B010
:1008B00000AF03460A46FB711346BB71012318467D
:1008C000012101F043F94FF48040012101F0B6F914
:1008D00000233B770223FB770123BB61FB79174A97
:1008E00052F8232007F118031046194600F0B2FB16
:1008F000BB79012B1FD1002200231046194600F0BE
:10090000B9F901233B6100233B7508237B75012363
:10091000BB7507F11003184601F08EFB06233B73ED
:100920000F237B730F23BB730123FB7307F10C03AE
:10093000184600F02BFA2037BD4680BD200000206D
:1009400080B582B000AF0346FB71FB79064A52F8CE
:10095000233001221846114600F046FC0346184693
:100960000837BD4680BD00BF2000002080B582B0A2
:1009700000AF2648002101F063FD244801F046FC49
:100980004FF40000002101F03BF94FF480733B600D
:1009900000233B710023FB713B461D48194600F0C4
:1009A00059FB4FF400733B603B461A48194600F070
:1009B00051FB194B0F221A70174B00225A70164B1D
:1009C00000229A70144B0022DA70134800F0DEF90E
:1009D000114B0D221A70104B00225A700E4B002240
:1009E0009A700D4800F0D2F90C48002102F070FA1C
:1009F0000B48002102F06CFA084802F00BF9084895
:100A000002F008F90837BD4680BD00BF005C004019
:100A100000000240000802402C33012070600240B8
:100A20004060024080B582B000AF4FF40000012169
:100A300001F0E6F80520012101F088F84FF480402C
:100A4000012101F0FBF84FF40000012101F06EF9E3
:100A50004FF40000002101F069F94FF480733B600E
:100A600002233B7102237B710123BB710023FB71C5
:100A70003B464948194600F0EDFA4FF400733B60DD
:100A80003B464648194600F0E5FA4348082104224F
:100A900000F04EFC41480921042200F049FC404B83
:100AA0000F221A703E4B00225A703D4B00229A7062
:100AB0003B4B0122DA703A4800F068F9384B0D22BE
:100AC0001A70374B00225A70354B00229A70344806
:100AD00000F05CF94FF40010012101F037F83148C3
:100AE000314902F02FFB2F48002102F0F1F92D4887
:100AF00002F090F82D4B4FF0C0621A602B4B2C4A3D
:100B00005A602A4B00229A60284B4022DA60274B19
:100B10004FF6FF721A61254B00225A61234B4FF4A6
:100B200080629A61214B0022DA61204B00221A6216
:100B30001E4B00225A621D4B4FF440329A621B4BEF
:100B40000422DA62194B03221A63184B00225A63FB
:100B5000164B00229A631348144902F02DF91548E8
:100B6000154902F0EFFA1348002102F0B1F91148DB
:100B700002F050F80F480D4902F01EF90948102103
:100B8000012202F00DFB0B481021012202F008FBAC
:100B90000837BD4680BD00BF00000240000802408B
:100BA0002C330120706002403D000020F032012013
:100BB000105C00404060024000003D1080B584B0F1
:100BC00000AFF860B9607A607B68002B0DD10F4AE6
:100BD000FB6893600D4B4022DA600C4ABB681361DE
:100BE0000B480A4902F0E8F80CE0084AFB689360F9
:100BF000064B0022DA60054ABB68136105480349C9
:100C000002F0DAF81037BD4680BD00BFF032012097
:100C1000706002404060024080B500AF4FF48040F9
:100C2000012101F0A1F84FF48040002101F09CF86F
:100C300080BD00BF80B483B000AF0346FB71044A9F
:100C4000FB7913600C37BD465DF8047B704700BF2D
:100C50000038014080B483B000AF0346FB71044A02
:100C6000FB7913600C37BD465DF8047B704700BF0D
:100C70002000274290B484B000AF03460A46FB71BF
:100C80001346BB710023FB60BB7903F003039B0099
:100C90000F2202FA03F3FB601649BB799B08DBB213
:100CA0001846144ABB799B08DBB2023352F8232062
:100CB000FB68DB431A40831C41F823200D48BB79B5
:100CC0009B08DBB21C460B4ABB799B08DBB20233A4
:100CD00052F82320F979BB7903F003039B0001FA52
:100CE00003F31A43A31C40F823201037BD4690BCE1
:100CF000704700BF0038014080B483B000AF786017
:100D0000034A7B6813600C37BD465DF8047B70476F
:100D1000DC00274280B483B000AF0346FB71044A75
:100D2000FB7913600C37BD465DF8047B704700BF4C
:100D30000004274280B483B000AF0023FB71094B4D
:100D40001B6A03F48073002B02D00123FB7101E0C6
:100D50000023FB71FB7918460C37BD465DF8047B18
:100D6000704700BF0038014080B483B000AF7860A6
:100D7000054A7B6843F0BF6343F40033D3600C370C
:100D8000BD465DF8047B704700ED00E080B485B09F
:100D900000AF78600023FB730023BB730F237B73CA
:100DA0007B68DB78002B38D0264BDB68DB4303F411
:100DB000E0631B0AFB73FB7BC3F10403BB737A7B09
:100DC000FB7B42FA03F37B737B685B781A46BB7B41
:100DD00002FA03F3FB737B689A787B7B1340DAB2E9
:100DE000FB7B1343FB73FB7B1B01FB73164A7B6886
:100DF0001B781344FA7B83F80023134A7B681B7823
:100E00005B09DBB218467B681B7803F01F030121E6
:100E100001FA03F342F820300FE00B497B681B789E
:100E20005B09DBB218467B681B7803F01F030122C5
:100E30009A4000F1200341F823201437BD465DF8A5
:100E4000047B704700ED00E000E100E080B483B077
:100E500000AF7860396007493B6823F0604323F0B6
:100E60007F037A6813438B600C37BD465DF8047BC3
:100E7000704700BF00ED00E080B483B000AF0346D0
:100E80000A46FB711346BB71BB79002B06D009499A
:100E9000084B1A69FB7913430B6106E00549054BC2
:100EA0001A69FB79DB4313400B610C37BD465DF8D3
:100EB000047B704700ED00E080B483B000AF786041
:100EC0007B68042B06D1094A084B1B6843F00403D6
:100ED000136005E0054A054B1B6823F0040313600B
:100EE0000C37BD465DF8047B704700BF10E000E0A2
:100EF00080B582B000AF78607B684B4A934208D1DE
:100F00000120012100F0B8FE0120002100F0B4FE14
:100F100086E07B68454A934208D10220012100F017
:100F2000ABFE0220002100F0A7FE79E07B68404A7A
:100F3000934208D10420012100F09EFE04200021EC
:100F400000F09AFE6CE07B683A4A934208D1082090
:100F5000012100F091FE0820002100F08DFE5FE0ED
:100F60007B68354A934208D11020012100F084FEAD
:100F70001020002100F080FE52E07B682F4A93424F
:100F800008D12020012100F077FE2020002100F070
:100F900073FE45E07B682A4A934208D14020012134
:100FA00000F06AFE4020002100F066FE38E07B6819
:100FB000244A934208D18020012100F05DFE802068
:100FC000002100F059FE2BE07B681F4A93420AD1B2
:100FD0004FF48070012100F04FFE4FF4807000212B
:100FE00000F04AFE1CE07B68184A93420AD14FF495
:100FF0000070012100F040FE4FF40070002100F06D
:101000003BFE0DE07B68124A934209D14FF48060A9
:10101000012100F031FE4FF48060002100F02CFE31
:101020000837BD4680BD00BF0000024000040240FA
:1010300000080240000C0240001002400014024070
:1010400000180240001C0240002002400024024020
:101050000028024080B487B000AF78603960002378
:101060007B6100233B610023FB6000237B6176E012
:101070007B69012202FA03F33B613B681A683B6912
:101080001340FB60FA683B699A4265D17B681A6835
:101090007B695B00194603238B40DB431A407B6866
:1010A0001A607B681A683B681B7919467B695B008C
:1010B00001FA03F31A437B681A603B681B79012B22
:1010C00003D03B681B79022B2ED17B689A687B6921
:1010D0005B00194603238B40DB431A407B689A6010
:1010E0007B689A683B685B7919467B695B0001FA0B
:1010F00003F31A437B689A607B685A687B699BB2EA
:10110000194601238B40DB431A407B685A607B6899
:101110005B683A68927911467A6992B201FA02F2F2
:1011200092B21A437B685A607B68DA687B699BB22B
:101130005B00032101FA03F3DB431A407B68DA60AA
:101140007B68DA683B68DB7919467B695B0001FAEA
:1011500003F31A437B68DA607B6901337B617B6947
:101160000F2B85D91C37BD465DF8047B704700BF47
:1011700080B483B000AF78607B684FF6FF721A606E
:101180007B6800221A717B6800225A717B680022FA
:101190009A717B680022DA710C37BD465DF8047BDA
:1011A000704700BF80B485B000AF78600B467B808D
:1011B0004FF48033FB607A88FB681343FB60FA6866
:1011C0007B68DA617A887B68DA61FA687B68DA6161
:1011D0007B68DB69FB607B68DB69FB601437BD46BD
:1011E0005DF8047B704700BF80B485B000AF7860C5
:1011F0000B467B800023FB737B681A697B88134056
:10120000002B02D00123FB7301E00023FB73FB7B67
:1012100018461437BD465DF8047B704780B483B030
:1012200000AF78607B681B699BB218460C37BD46DF
:101230005DF8047B704700BF80B485B000AF786074
:101240000B467B800023FB737B685A697B881340C5
:10125000002B02D00123FB7301E00023FB73FB7B17
:1012600018461437BD465DF8047B704780B483B0E0
:1012700000AF78607B685B699BB218460C37BD464F
:101280005DF8047B704700BF80B483B000AF786026
:101290000B467B807B687A881A830C37BD465DF8E5
:1012A000047B704780B483B000AF78600B467B80CE
:1012B0007B687A885A830C37BD465DF8047B70479B
:1012C00080B483B000AF78600B467B8013467B70A0
:1012D0007B78002B03D07B687A881A8302E07B68D6
:1012E0007A885A830C37BD465DF8047B704700BF8F
:1012F00080B483B000AF78600B467B807A887B68CF
:101300005A610C37BD465DF8047B704780B483B0EA
:1013100000AF78600B467B807B685A697B885A40B7
:101320007B685A610C37BD465DF8047B704700BF8F
:1013300080B485B000AF78600B467B8013467B702D
:101340000023FB600023BB607B787A8802F00702F1
:1013500092009340FB607B88DB089BB218467B8839
:10136000DB089BB21A467B68083253F822207B8840
:1013700003F007039B0019460F238B40DB4302EA6F
:1013800003017B6800F1080243F822107B88DB0828
:101390009BB21A467B68083253F82220FB6813433D
:1013A000BB607B88DB089BB21A467B680832B96851
:1013B00043F822101437BD465DF8047B704700BF28
:1013C00080B400AF164A164B1B6843F0010313604C
:1013D000134B00229A60124A114B1B6823F0A8534A
:1013E00023F4102313600E4B0E4A5A600C4B0E4A26
:1013F000C3F884200A4B0D4AC3F88820084A084BDA
:101400001B6823F480231360054B0022DA60044B31
:101410000022C3F88C20BD465DF8047B704700BFF6
:10142000003802401030002400300020003000243A
:1014300080B483B000AF0346FB71054B00221A70E5
:10144000034AFB7913700C37BD465DF8047B704787
:101450000238024080B582B000AF00233B60002319
:10146000FB710023BB71312000F058FD0346BB71B6
:101470003B6801333B603B68B3F5A04F02D0BB79BA
:10148000002BF0D0312000F049FD0346002B02D0A4
:101490000123FB7101E00023FB71FB79184608373B
:1014A000BD4680BD80B485B000AF0346FB7100230C
:1014B000FB600A4B1B68FB60FB6823F0F803FB60D2
:1014C000FB79DB00FA681343FB60044AFB68136096
:1014D0001437BD465DF8047B704700BF00380240FA
:1014E00080B483B000AF0346FB71044AFB791360FC
:1014F0000C37BD465DF8047B704700BF00004742D3
:1015000080B483B000AF0346FB710C4B00221A700D
:101510000A4B00221A70FB79012B02D0042B04D055
:1015200007E0064B01221A7003E0044B05221A70F3
:1015300000BF0C37BD465DF8047B70477038024031
:1015400080B483B000AF0346FB71044AFB7913609B
:101550000C37BD465DF8047B704700BF800E4742E4
:1015600080B485B000AFF860B9607A603B600A492A
:101570007B689A01BB681A433B685B08013B1B040C
:101580001A43FB681A43BB691B0613434B601437AD
:10159000BD465DF8047B70470038024080B483B0DC
:1015A00000AF0346FB71044AFB7913600C37BD465C
:1015B0005DF8047B704700BF6000474280B485B08F
:1015C00000AFF860B9607A600749FB689A01BB68B0
:1015D0001B061A437B681B071343C1F8843014377A
:1015E000BD465DF8047B70470038024080B483B08C
:1015F00000AF0346FB71044AFB7913600C37BD460C
:101600005DF8047B704700BF6800474280B485B036
:1016100000AFF860B9607A600749FB689A01BB685F
:101620001B061A437B681B071343C1F88830143725
:10163000BD465DF8047B70470038024080B483B03B
:1016400000AF0346FB71044AFB7913600C37BD46BB
:101650005DF8047B704700BF7000474280B483B0E0
:1016600000AF0346FB71044AFB7913600C37BD469B
:101670005DF8047B704700BF4C00474280B485B0E2
:1016800000AF786039600023FB600A4B9B68FB6009
:10169000FB6823F0EC63FB607A683B681343FA68ED
:1016A0001343FB60034AFB6893601437BD465DF843
:1016B000047B70470038024080B485B000AF78608A
:1016C00039600023FB600A4B9B68FB60FB6823F0DA
:1016D0007843FB607A683B681343FA681343FB6006
:1016E000034AFB6893601437BD465DF8047B70477E
:1016F0000038024080B485B000AF78600023FB6002
:10170000094B9B68FB60FB6823F00303FB60FA68EE
:101710007B681343FB60044AFB6893601437BD4643
:101720005DF8047B704700BF0038024080B400AF12
:10173000054B9B68DBB203F00C03DBB21846BD46D9
:101740005DF8047B704700BF0038024080B485B06C
:1017500000AF78600023FB60094B9B68FB60FB686F
:1017600023F0F003FB60FA687B681343FB60044AD4
:10177000FB6893601437BD465DF8047B704700BF7B
:101780000038024080B485B000AF78600023FB6071
:10179000094B9B68FB60FB6823F4E053FB60FA682D
:1017A0007B681343FB60044AFB6893601437BD46B3
:1017B0005DF8047B704700BF0038024080B485B0FC
:1017C00000AF78600023FB60094B9B68FB60FB68FF
:1017D00023F46043FB607B68DB00FA681343FB6023
:1017E000034AFB6893601437BD465DF8047B70477D
:1017F0000038024080B489B000AF78600023BB613C
:1018000000237B610023FB6102233B610023FB601B
:101810000223BB60484B9B6803F00C03BB61BB69B0
:10182000042B07D0082B09D0002B3FD17B68434AFB
:101830001A603FE07B68424A1A603BE03E4B5B68BF
:1018400003F480039B0DFB603B4B5B6803F03F039D
:10185000BB60FB68002B0DD0394ABB68B2FBF3F2CA
:10186000354B596847F6C0730B409B0903FB02F3E5
:10187000FB610CE0314ABB68B2FBF3F22E4B5968B6
:1018800047F6C0730B409B0903FB02F3FB612A4B35
:101890005B6803F440331B0C01335B003B61FA6966
:1018A0003B69B2FBF3F27B681A6003E07B68234A72
:1018B0001A6000BF204B9B6803F0F003BB61BB695B
:1018C0001B09BB611F4ABB6913441B78DBB27B61F8
:1018D0007B681A687B69DA407B685A60164B9B68A4
:1018E00003F4E053BB61BB699B0ABB61154ABB694A
:1018F00013441B78DBB27B617B685A687B69DA40F2
:101900007B689A600C4B9B6803F46043BB61BB69C6
:101910005B0BBB610B4ABB6913441B78DBB27B6179
:101920007B685A687B69DA407B68DA602437BD4699
:101930005DF8047B704700BF003802400024F400CB
:1019400000127A002400002080B485B000AF7860D7
:101950000023FB607B6803F44073B3F5407F11D133
:101960000F4B9B68FB60FB6823F4F813FB607B68FC
:1019700023F0704323F44073FA681343FB60084A72
:10198000FB6893600649064B1A6F7B68C3F30B0331
:1019900013430B671437BD465DF8047B704700BFE7
:1019A0000038024080B483B000AF0346FB71044AA4
:1019B000FB7913600C37BD465DF8047B704700BFB0
:1019C0003C0E474280B483B000AF0346FB71044A2B
:1019D000FB7913600C37BD465DF8047B704700BF90
:1019E000400E474280B483B000AF7860034A7B6802
:1019F00013600C37BD465DF8047B70475C014742BD
:101A000080B485B000AF78600023FB600A4BD3F848
:101A10008C30FB60FB6823F01F03FB607B68013B9D
:101A2000FA681343FB60044AFB68C2F88C30143731
:101A3000BD465DF8047B70470038024080B485B035
:101A400000AF78600023FB600B4BD3F88C30FB6059
:101A5000FB6823F4F853FB607B68013B1B02FA68C8
:101A60001343FB60044AFB68C2F88C301437BD4650
:101A70005DF8047B704700BF0038024080B485B039
:101A800000AF78600023FB600A4BD3F88C30FB601A
:101A9000FB6823F44013FB60FA687B681343FB6028
:101AA000044AFB68C2F88C301437BD465DF8047BED
:101AB000704700BF0038024080B485B000AF786046
:101AC0000023FB600A4BD3F88C30FB60FB6823F4E7
:101AD0004003FB60FA687B681343FB60044AFB68C1
:101AE000C2F88C301437BD465DF8047B704700BFE8
:101AF0000038024080B485B000AF78600023FB60FE
:101B00000A4BD3F88C30FB60FB6823F44033FB6056
:101B1000FA687B681343FB60044AFB68C2F88C30A8
:101B20001437BD465DF8047B704700BF00380240A3
:101B300080B483B000AF7860034A7B6813600C37D1
:101B4000BD465DF8047B7047E011474280B483B026
:101B500000AF78600B46FB70FB78002B06D009497C
:101B6000084B1A6B7B6813430B6306E00549054B72
:101B70001A6B7B68DB4313400B630C37BD465DF883
:101B8000047B70470038024080B483B000AF7860B7
:101B90000B46FB70FB78002B06D00949084B5A6BAB
:101BA0007B6813434B6306E00549054B5A6B7B6822
:101BB000DB4313404B630C37BD465DF8047B704735
:101BC0000038024080B483B000AF78600B46FB70F1
:101BD000FB78002B06D00949084B9A6B7B681343AE
:101BE0008B6306E00549054B9A6B7B68DB4313402A
:101BF0008B630C37BD465DF8047B704700380240AC
:101C000080B483B000AF78600B46FB70FB78002B8C
:101C100006D00949084B1A6C7B6813430B6406E035
:101C20000549054B1A6C7B68DB4313400B640C378A
:101C3000BD465DF8047B70470038024080B483B035
:101C400000AF78600B46FB70FB78002B06D009498B
:101C5000084B5A6C7B6813434B6406E00549054BFF
:101C60005A6C7B68DB4313404B640C37BD465DF810
:101C7000047B70470038024080B483B000AF7860C6
:101C80000B46FB70FB78002B06D00949084B1A69FC
:101C90007B6813430B6106E00549054B1A697B68B5
:101CA000DB4313400B610C37BD465DF8047B704786
:101CB0000038024080B483B000AF78600B46FB7000
:101CC000FB78002B06D00949084B5A697B681343FF
:101CD0004B6106E00549054B5A697B68DB431340BD
:101CE0004B610C37BD465DF8047B704700380240FD
:101CF00080B483B000AF78600B46FB70FB78002B9C
:101D000006D00949084B9A697B6813438B6106E04A
:101D10000549054B9A697B68DB4313408B610C379F
:101D2000BD465DF8047B70470038024080B483B044
:101D300000AF78600B46FB70FB78002B06D009499A
:101D4000084B1A6A7B6813430B6206E00549054B92
:101D50001A6A7B68DB4313400B620C37BD465DF8A3
:101D6000047B70470038024080B483B000AF7860D5
:101D70000B46FB70FB78002B06D00949084B5A6ACA
:101D80007B6813434B6206E00549054B5A6A7B6842
:101D9000DB4313404B620C37BD465DF8047B704754
:101DA0000038024080B483B000AF78600B46FB700F
:101DB000FB78002B06D00949084B1A6D7B6813434A
:101DC0000B6506E00549054B1A6D7B68DB43134044
:101DD0000B650C37BD465DF8047B70470038024048
:101DE00080B483B000AF78600B46FB70FB78002BAB
:101DF00006D00949084B5A6D7B6813434B6506E0D2
:101E00000549054B5A6D7B68DB4313404B650C3726
:101E1000BD465DF8047B70470038024080B483B053
:101E200000AF78600B46FB70FB78002B06D00949A9
:101E3000084B9A6D7B6813438B6506E00549054B9B
:101E40009A6D7B68DB4313408B650C37BD465DF8AC
:101E5000047B70470038024080B483B000AF7860E4
:101E60000B46FB70FB78002B06D00949084B1A6E15
:101E70007B6813430B6606E00549054B1A6E7B68C9
:101E8000DB4313400B660C37BD465DF8047B70479F
:101E90000038024080B483B000AF78600B46FB701E
:101EA000FB78002B06D00949084B5A6E7B68134318
:101EB0004B6606E00549054B5A6E7B68DB431340D1
:101EC0004B660C37BD465DF8047B70470038024016
:101ED00080B483B000AF03460A46FB711346BB7162
:101EE000BB79002B08D00C490B4B1B78DAB2FB797D
:101EF0001343DBB20B7009E00749074B1B78DAB2DA
:101F0000FB79DB43DBB21340DBB20B700C37BD4611
:101F10005DF8047B704700BF0D38024080B487B085
:101F200000AF0346FB710023FB6000237B610023AD
:101F3000FB74FB795B09DBB2FB60FB68012B03D10F
:101F4000124B1B687B6109E0FB68022B03D10F4B2E
:101F50001B6F7B6102E00D4B5B6F7B61FB7903F0D4
:101F60001F03FB60FB687A6922FA03F303F00103A5
:101F7000002B02D00123FB7401E00023FB74FB7CE7
:101F800018461C37BD465DF8047B70470038024098
:101F900080B400AF044A044B5B6F43F08073536717
:101FA000BD465DF8047B70470038024080B485B0C0
:101FB00000AF0346FB710023FB73094BDA68FB7922
:101FC0001340002B02D00123FB7301E00023FB73BD
:101FD000FB7B18461437BD465DF8047B704700BF95
:101FE0000038024080B483B000AF0346FB71044A5E
:101FF000FB7913700C37BD465DF8047B704700BF5A
:102000000E38024080B400AF094B00221A60084B22
:1020100000225A60064B00229A60054B0022DA60CB
:10202000034B044A5A61BD465DF8047B704700BF0C
:10203000003C0140FFFF7F0080B485B000AF7860B6
:102040000023FB60344BFB607B689B79002B4FD0F7
:102050003149314B1A687B681B68DB4313400B60C6
:102060002D492D4B5A687B681B68DB4313404B603E
:102070007B681B791A46FB681344FB60FB68FA68AF
:1020800011687A6812680A431A602349224B9A68D9
:102090007B681B68DB4313408B601F491E4BDA686B
:1020A0007B681B68DB431340CB607B685B79102B3C
:1020B0000ED11949184B9A687B681B6813438B60D3
:1020C0001549154BDA687B681B681343CB601DE02C
:1020D000114BFB607B685B791A46FB681344FB601D
:1020E000FB68FA6811687A6812680A431A600DE0A2
:1020F0007B681B791A46FB681344FB60FB68FA682F
:1021000011687A681268D2430A401A601437BD46D3
:102110005DF8047B704700BF003C014080B483B091
:1021200000AF78607B6800221A607B6800221A7119
:102130007B680C225A717B6800229A710C37BD466D
:102140005DF8047B704700BF80B483B000AF786057
:102150000549054B1A697B6813430B610C37BD4673
:102160005DF8047B704700BF003C014080B485B03F
:1021700000AF78600023FB73084B5A697B681340FB
:10218000002B02D00123FB7301E00023FB73FB7BD8
:1021900018461437BD465DF8047B7047003C01408B
:1021A00080B483B000AF7860034A7B6853610C371A
:1021B000BD465DF8047B7047003C014080B485B0AB
:1021C00000AF78600023FB73084B5A697B681340AB
:1021D000002B02D00123FB7301E00023FB73FB7B88
:1021E00018461437BD465DF8047B7047003C01403B
:1021F00080B483B000AF7860034A7B6853610C37CA
:10220000BD465DF8047B7047003C014080B582B05C
:1022100000AF78607B68174A93420AD14FF40010F0
:102220000121FFF783FD4FF400100021FFF77EFD31
:102230001CE07B68104A93420AD14FF480000121D0
:10224000FFF774FD4FF480000021FFF76FFD0DE0F4
:102250007B680A4A934209D14FF400000121FFF73D
:1022600065FD4FF400000021FFF760FD0837BD4613
:1022700080BD00BF0054004000580040005C00409A
:1022800080B58AB000AF786039600023FB840023FA
:102290007B840423BB84574BFB617B689B88FB8456
:1022A000FB8C23F03F03FB8407F10C031846FFF778
:1022B000A1FA7B69FB61FB694F4AA2FB03239B0CDC
:1022C0007B84FA8C7B8C1343FB847B68FA8C9A802A
:1022D0007B681B889BB223F001039AB27B681A804B
:1022E0000023FB843B681B68444A934215D83B6833
:1022F0001B685B00FA69B2FBF3F3BB84BB8C032B56
:1023000001D80423BB84FA8CBB8C1343FB847B8CE5
:1023100001339AB27B681A8440E03B68DB884BF655
:10232000FF72934209D13B681A6813465B0013445D
:10233000FA69B2FBF3F3BB840EE03B681A681346FC
:102340009B0013449A001344FA69B2FBF3F3BB8475
:10235000BB8C43F48043BB84BB8CC3F30B03002BC7
:1023600003D1BB8C43F00103BB84BA8CFB8C1343B9
:102370009BB26FEA43436FEA5343FB847B8C4FF479
:10238000967202FB03F31E4A82FB03129211DB17C3
:10239000D31A9BB201339AB27B681A847B68FA8C99
:1023A0009A837B681B889BB243F001039AB27B68D7
:1023B0001A807B681B88FB84FB8C23F4816323F0E9
:1023C0000203FB843B689A883B685B8913439AB29B
:1023D000FB8C1343FB847B68FA8C1A803B689A89D8
:1023E0003B681B8913439AB27B681A812837BD4624
:1023F00080BD00BF00127A0083DE1B43A08601006F
:10240000D34D621080B483B000AF78607B6841F236
:1024100088321A607B6800229A807B684BF6FF72D4
:10242000DA807B6800221A817B6800225A817B68EF
:102430004FF480429A810C37BD465DF8047B7047AB
:1024400080B483B000AF78600B46FB70FB78002B44
:1024500008D07B681B889BB243F001039AB27B686B
:102460001A8007E07B681B889BB223F001039AB2B5
:102470007B681A800C37BD465DF8047B704700BF4F
:1024800080B483B000AF78600B46FB70FB78002B04
:1024900008D07B689B8C9BB223F010039AB27B68B8
:1024A0009A8407E07B689B8C9BB243F010039AB23E
:1024B0007B689A840C37BD465DF8047B704700BF8B
:1024C00080B485B000AF78600B467B800023FB8131
:1024D0007B689B8CFB81FB8923F00F03FB817B884E
:1024E00003F00F039AB2FB8913439BB2FB817B6815
:1024F000FA899A841437BD465DF8047B704700BFA3
:1025000080B483B000AF78600B46FB70FB78002B83
:1025100008D07B681B889BB243F480739AB27B68B7
:102520001A8007E07B681B889BB223F480739AB201
:102530007B681A800C37BD465DF8047B704700BF8E
:1025400080B483B000AF78600B46FB70FB78002B43
:1025500008D07B681B889BB243F400739AB27B68F7
:102560001A8007E07B681B889BB223F400739AB241
:102570007B681A800C37BD465DF8047B704700BF4E
:1025800080B483B000AF78600B46FB701346BB701D
:10259000BB78002B04D0FB7843F00103FB7003E011
:1025A000FB7823F00103FB70FB789AB27B681A82F8
:1025B0000C37BD465DF8047B704700BF80B483B024
:1025C00000AF78600B46FB70FB78002B08D07B686F
:1025D0001B889BB243F480639AB27B681A8007E041
:1025E0007B681B889BB223F480639AB27B681A8055
:1025F0000C37BD465DF8047B704700BF80B485B0E2
:1026000000AF78600B46FB700023FB817B689B89E1
:10261000FB81FB8923F0FE03FB81FB789BB203F077
:10262000FE039AB2FB8913439BB2FB817B68FA8954
:102630009A811437BD465DF8047B704780B483B03F
:1026400000AF78600B46FB70FB78002B08D07B68EE
:102650009B899BB243F001039AB27B689A8107E0A1
:102660007B689B899BB223F001039AB27B689A81B5
:102670000C37BD465DF8047B704700BF80B483B063
:1026800000AF78600B46FB70FB78002B08D07B68AE
:102690001B889BB243F040039AB27B681A8007E024
:1026A0007B681B889BB223F040039AB27B681A8038
:1026B0000C37BD465DF8047B704700BF80B483B023
:1026C00000AF78600B46FB70FB78002B0AD07B686C
:1026D0001B889BB26FEA43436FEA53439AB27B680D
:1026E0001A8007E07B681B889BB2C3F30E039AB283
:1026F0007B681A800C37BD465DF8047B704700BFCD
:1027000080B483B000AF78600B46FB70FB78002B81
:1027100008D17B681B889BB243F080039AB27B6828
:102720001A8007E07B681B889BB223F080039AB273
:102730007B681A800C37BD465DF8047B704700BF8C
:1027400080B483B000AF78600B467B807B88B3F5A4
:10275000804F08D07B689B8B9BB223F480439AB256
:102760007B689A8307E07B689B8B9BB243F4804332
:102770009AB27B689A830C37BD465DF8047B70473C
:1027800080B483B000AF78600B467B807B88B3F564
:10279000006F08D17B681B889BB243F400639AB238
:1027A0007B681A8007E07B681B889BB223F4006378
:1027B0009AB27B681A800C37BD465DF8047B70477F
:1027C00080B483B000AF78600B467B807B88B3F524
:1027D000005F08D17B681B889BB243F400539AB218
:1027E0007B681A8007E07B681B889BB223F4005348
:1027F0009AB27B681A800C37BD465DF8047B70473F
:1028000080B483B000AF78600B46FB70FB78002B80
:1028100008D07B681B889BB243F010039AB27B6898
:102820001A8007E07B681B889BB223F010039AB2E2
:102830007B681A800C37BD465DF8047B704700BF8B
:1028400080B483B000AF78600B46FB70FB789AB21F
:102850007B681A820C37BD465DF8047B704700BF69
:1028600080B483B000AF78607B681B8A9BB2DBB218
:1028700018460C37BD465DF8047B704780B483B0C2
:1028800000AF78600B46FB70FB78002B08D07B68AC
:102890001B889BB243F480539AB27B681A8007E08E
:1028A0007B681B889BB223F480539AB27B681A80A2
:1028B0000C37BD465DF8047B704700BF80B483B021
:1028C00000AF78600B467B807B88B3F5006F08D142
:1028D0007B681B889BB243F400639AB27B681A80C2
:1028E00007E07B681B889BB223F400639AB27B6885
:1028F0001A800C37BD465DF8047B704780B483B006
:1029000000AF78600B46FB70FB78002B08D07B682B
:102910001B889BB243F020039AB27B681A8007E0C1
:102920007B681B889BB223F020039AB27B681A80D5
:102930000C37BD465DF8047B704700BF80B483B0A0
:1029400000AF78607B681B8B9BB21B0A9BB2DBB22B
:1029500018460C37BD465DF8047B704780B483B0E1
:1029600000AF78600B46FB70FB78002B08D07B68CB
:102970009B889BB243F400639AB27B689A8007E01D
:102980007B689B889BB223F400639AB27B689A8031
:102990000C37BD465DF8047B704700BF80B483B040
:1029A00000AF78600B46FB70FB78002B08D07B688B
:1029B0009B889BB243F480539AB27B689A8007E06D
:1029C0007B689B889BB223F480539AB27B689A8081
:1029D0000C37BD465DF8047B704700BF80B485B0FE
:1029E00000AF78600B46FB700023FB607B68FB60E8
:1029F000FA78FB681344FB60FB681B889BB218469F
:102A00001437BD465DF8047B704700BF80B483B0C7
:102A100000AF78600B467B8013467B707B78002B81
:102A200008D07B689B889AB27B8813439AB27B68F4
:102A30009A8009E07B689B889AB27B88DB439BB2D3
:102A400013409AB27B689A800C37BD465DF8047BD0
:102A5000704700BF80B487B000AF78603960002352
:102A60003B610023FB600023BB600023FB757B6898
:102A70009B8A9BB2FB607B681B8B9BB2BB60BB6875
:102A80001B04BB60FA68BB68134323F07F433B61C0
:102A90003A693B681A403B689A4202D10123FB75B0
:102AA00001E00023FB75FB7D18461C37BD465DF831
:102AB000047B704780B487B000AF786000237B61EF
:102AC00000233B610023FB607B689B8A9BB23B61D8
:102AD0007B681B8B9BB2FB60FB681B04FB603A6945
:102AE000FB68134323F07F437B617B6918461C37E7
:102AF000BD465DF8047B704780B487B000AF786056
:102B000039600023FB7500233B610023FB607B6879
:102B1000FB603B681B0F3B613B6823F07F433B60DE
:102B20003B69002B03D0FB681433FB6005E03B6876
:102B30001B0C3B60FB681833FB60FB681A683B6842
:102B40001340002B02D00123FB7501E00023FB752D
:102B5000FB7D18461C37BD465DF8047B704700BFFF
:102B600080B485B000AF786039600023FB603B68BB
:102B700023F07F43FB60FB689BB2DB439AB27B6828
:102B80009A821437BD465DF8047B704780B485B0E7
:102B900000AF786039600023FB730023BB603B68A3
:102BA00003F0E0631B0C7A68928892B21340BB601A
:102BB0003B6823F07F433B607B689B8A9BB21A464D
:102BC0003B681340002B05D0BB68002B02D00123CB
:102BD000FB7301E00023FB73FB7B18461437BD46F3
:102BE0005DF8047B704700BF80B485B000AF7860AB
:102BF00039600023FB603B6823F07F43FB60FB6888
:102C00009BB2DB439AB27B689A821437BD465DF86B
:102C1000047B704780B483B000AF78607B681B682A
:102C200023F001027B681A607B6800221A607B68CF
:102C300000225A607B6800229A607B680022DA607A
:102C40007B6800221A617B6821225A617B68454AB1
:102C5000934203D1444B3D229A607EE07B68434A15
:102C6000934204D1404B4FF474629A6075E07B68E4
:102C70003F4A934204D13C4B4FF474129A606CE08B
:102C80007B683C4A934204D1374B4FF074629A60A0
:102C900063E07B68384A934203D1334B374ADA60AA
:102CA0005BE07B68364A934203D12F4B354ADA60AA
:102CB00053E07B68344A934203D12B4B334ADA60AA
:102CC0004BE07B68324A934204D1274B4FF03D5290
:102CD000DA6042E07B682F4A934203D12E4B3D22BB
:102CE0009A603AE07B682D4A934204D12A4B4FF414
:102CF00074629A6031E07B68294A934204D1264B82
:102D00004FF474129A6028E07B68264A934204D1FB
:102D1000214B4FF074629A601FE07B68224A934215
:102D200003D11D4B154ADA6017E07B681F4A9342B6
:102D300003D1194B134ADA600FE07B681C4A9342B7
:102D400003D1154B114ADA6007E07B68194A9342B8
:102D500003D1114B4FF03D52DA600C37BD465DF8A0
:102D6000047B70471060024000600240286002400F
:102D70004060024058600240706002403D00002008
:102D800088600240400F0020A060024000003D200B
:102D9000B8600240106402400064024028640240AF
:102DA00040640240586402407064024088640240FB
:102DB000A0640240B864024080B485B000AF78607F
:102DC00039600023FB607B681B68FB60FA68244B5A
:102DD0001340FB603B681A683B68DB681A433B683A
:102DE0005B691A433B689B691A433B68DB691A437A
:102DF0003B681B6A1A433B685B6A1A433B689B6AE1
:102E00001A433B685B6B1A433B689B6B1343FA683E
:102E10001343FB607B68FA681A607B685B69FB6040
:102E2000FB6823F00703FB603B68DA6A3B681B6BB7
:102E30001343FA681343FB607B68FA685A613B6886
:102E40001A697B685A603B685A687B689A603B687D
:102E50009A687B68DA601437BD465DF8047B70477A
:102E60003F801CF080B483B000AF78607B680022A4
:102E70001A607B6800225A607B6800229A607B6837
:102E80000022DA607B6800221A617B6800225A61A6
:102E90007B6800229A617B680022DA617B680022ED
:102EA0001A627B6800225A627B6800229A627B6801
:102EB0000022DA627B6800221A637B6800225A6370
:102EC0007B6800229A630C37BD465DF8047B70472F
:102ED00080B483B000AF78600B46FB70FB78002BAA
:102EE00006D07B681B6843F001027B681A6005E02E
:102EF0007B681B6823F001027B681A600C37BD46B3
:102F00005DF8047B704700BF80B483B000AF786089
:102F100039603B68002B06D07B681B6843F4004295
:102F20007B681A6005E07B681B6823F400427B68BD
:102F30001A600C37BD465DF8047B704780B483B0DF
:102F400000AF786039603B68002B06D07B681B6857
:102F500043F020027B681A6005E07B681B6823F061
:102F600020027B681A600C37BD465DF8047B704711
:102F700080B483B000AF78600B467B807A887B6832
:102F80005A600C37BD465DF8047B704780B483B04F
:102F900000AF78607B685B689BB218460C37BD4613
:102FA0005DF8047B704700BF80B485B000AFF86067
:102FB000B9607A607B68002B06D0FB681B6843F41D
:102FC0000022FB681A6005E0FB681B6823F40022FE
:102FD000FB681A60FB68BA681A611437BD465DF871
:102FE000047B704780B483B000AF78600B46FB7001
:102FF000FB78002B06D07B681B6843F480227B683B
:103000001A6005E07B681B6823F480227B681A60E5
:103010000C37BD465DF8047B704700BF80B485B0B7
:1030200000AFF860B9607A607B68002B03D0FB6862
:10303000BA681A6102E0FB68BA68DA601437BD4604
:103040005DF8047B704700BF80B485B000AF786046
:103050000023FB607B681B6803F40023002B02D075
:103060000123FB6001E00023FB60FB681846143776
:10307000BD465DF8047B704780B485B000AF7860D2
:103080000023FB737B681B6803F00103002B02D055
:103090000123FB7301E00023FB73FB7B184614370D
:1030A000BD465DF8047B704780B485B000AF7860A2
:1030B0000023FB607B685B6903F03803FB60FB68FF
:1030C00018461437BD465DF8047B704780B487B05E
:1030D00000AF786039600023FB750023FB607B68DC
:1030E000154A934202D8154B3B6101E0144B3B61FA
:1030F0003B6803F00053002B03D03B695B68FB6027
:1031000002E03B691B68FB60FB6823F0F02323F0BF
:103110008213FB60FA683B681340002B02D0012346
:10312000FB7501E00023FB75FB7D18461C37BD468F
:103130005DF8047B704700BF0F64024000600240EE
:103140000064024080B485B000AF786039607B686D
:10315000104A934202D8104BFB6001E00F4BFB601A
:103160003B6803F00053002B07D03B6823F0F023AB
:1031700023F08213FA68D36006E03B6823F0F02363
:1031800023F08213FA6893601437BD465DF8047B20
:10319000704700BF0F6402400060024000640240BC
:1031A00080B485B000AFF860B9601346FB71BB68AE
:1031B00003F08003002B0FD0FB79002B06D0FB68B7
:1031C0005B6943F08002FB685A6105E0FB685B695C
:1031D00023F08002FB685A61BB68802B14D0FB7916
:1031E000002B08D0FB681A68BB6803F01E031A4363
:1031F000FB681A6008E0FB681A68BB6803F01E03EE
:10320000DB431A40FB681A601437BD465DF8047B47
:10321000704700BF80B487B000AF7860396000238A
:10322000FB750023FB600023BB607B68224A93424E
:1032300002D8224B3B6101E0214B3B613B6823F00C
:10324000F02323F0C313002B0AD03B68DB0A03F002
:103250001E03FB607B681A68FB681340BB6004E0D8
:103260007B685B6903F08003BB603B6803F000533D
:10327000002B03D03B695B68FB6002E03B691B6885
:10328000FB60FB6823F0F02323F08213FB60FA68F5
:103290003B681340002B05D0BB68002B02D00123F4
:1032A000FB7501E00023FB75FB7D18461C37BD460E
:1032B0005DF8047B704700BF0F640240006002406D
:1032C0000064024080B485B000AF786039607B68EC
:1032D000104A934202D8104BFB6001E00F4BFB6099
:1032E0003B6803F00053002B07D03B6823F0F0232A
:1032F00023F08213FA68D36006E03B6823F0F023E2
:1033000023F08213FA6893601437BD465DF8047B9E
:10331000704700BF0F64024000600240006402403A
:1033200080B485B000AFF860B9607A60FB68043B98
:10333000FB60FB684FF080721A60FB68043BFB6027
:10334000BB6823F00102FB681A60FB68043BFB606A
:10335000094AFB681A60FB68143BFB607A68FB68EB
:103360001A60FB68203BFB60FB6818461437BD46BB
:103370005DF8047B704700BF7D33000880B483B0E4
:1033800000AF0C4B1B68B3F1FF3F09D04FF0500367
:1033900083F31188BFF36F8FBFF34F8F7B60FEE71E
:1033A0004FF0500383F31188BFF36F8FBFF34F8F3C
:1033B0003B60FEE734000020094B19680868B0E85C
:1033C000F00F80F30988BFF36F8F4FF0000080F398
:1033D00011884EF00D0E7047AFF30080AFF3008000
:1033E000B8300120B6480068006880F3088862B6EB
:1033F00061B6BFF34F8FBFF36F8F00DF00BF00BF19
:1034000080B584B000AF284BFB60FB681B78DBB253
:10341000BB60FB68FF221A70FB681B78DBB2FB7194
:10342000FB79DBB203F05003DAB2204B1A70204B69
:1034300007221A6009E01E4B1B68013B1C4A1360FF
:10344000FB79DBB25B00DBB2FB71FB79DBB2DBB299
:103450005BB2002BEFDB164B1B681B02144A136098
:10346000134B1B6803F4E063114A1360BB68DAB2C4
:10347000FB681A700F4A0F4B1B6843F4700313600C
:103480000C4A0C4B1B6843F07043136000F0CAF801
:10349000094B00221A60FFF7A5FFFFF76FFF00231B
:1034A00018461037BD4680BD00E400E09C040020B3
:1034B000A004002020ED00E03400002080B483B0A0
:1034C00000AF0A4B1B68B3F57A7F09D04FF0500369
:1034D00083F31188BFF36F8FBFF34F8F7B60FEE7DD
:1034E0000C37BD465DF8047B704700BF34000020F8
:1034F00080B483B000AF4FF0500383F31188BFF363
:103500006F8FBFF34F8F7B600E4B1B6801330D4AEB
:1035100013600C4B1B68012B0ED10B4B1B68DBB2ED
:10352000002B09D04FF0500383F31188BFF36F8F46
:10353000BFF34F8F3B60FEE70C37BD465DF8047B61
:10354000704700BF3400002004ED00E080B483B079
:1035500000AF104B1B68002B09D14FF0500383F3D1
:103560001188BFF36F8FBFF34F8F7B60FEE7094B6E
:103570001B68013B074A1360064B1B68002B04D1F4
:1035800000233B603B6883F311880C37BD465DF830
:10359000047B704734000020EFF30980BFF36F8F86
:1035A0000F4B1A6820E9F00F10602DE908404FF02A
:1035B000500080F3118803F057FA4FF0000080F3B9
:1035C0001188BDE8084019680868B0E8F00F80F37A
:1035D0000988BFF36F8F7047AFF30080AFF30080AF
:1035E000B830012080B582B000AF4FF0500383F3B4
:1035F0001188BFF36F8FBFF34F8F7B6003F052F9D9
:103600000346002B03D0064B4FF080521A60002374
:103610003B603B6883F311880837BD4680BD00BF1F
:1036200004ED00E080B400AF054B4FF223421A6076
:10363000044B07221A60BD465DF8047B704700BF4B
:1036400014E000E010E000E080B485B000AFEFF3DC
:103650000583FB60FB680F2B13D9154AFB681344E5
:103660001B78FB72134B1B78FA7A9A4209D24FF0FF
:10367000500383F31188BFF36F8FBFF34F8F7B60CD
:10368000FEE70D4B1B6803F4E0620C4B1B689A428B
:1036900009D94FF0500383F31188BFF36F8FBFF345
:1036A0004F8F3B60FEE71437BD465DF8047B7047E3
:1036B000F0E300E09C0400200CED00E0A0040020FA
:1036C00008ED00E080B588B000AF786000237B6132
:1036D00002F054FF454B1B68002B04D100F0E4F8C6
:1036E000424B01221A607B68002B0ED008231A4639
:1036F0007B6813447B607B6803F00703002B04D0D6
:103700007B6823F0070308337B607B68002B56D06F
:103710007B68374A934252D8364BBB61354B1B68A6
:10372000FB6104E0FB69BB61FB691B68FB61FB6932
:103730005A687B689A4203D2FB691B68002BF1D15F
:10374000FB692D4A93423AD0BB691B680822134497
:103750007B61FB691A68BB691A60FB695A687B6800
:10376000D31A08225200934222D9FA697B68134483
:10377000FB60FB695A687B68D21AFB685A60FB6978
:103780007A685A60FB685B68BB601A4B3B6102E079
:103790003B691B683B613B691B685A68BB689A427E
:1037A000F6D33B691A68FB681A603B69FA681A60CD
:1037B000124B1A68FB695B68D31A104A13607B6965
:1037C000002B06D07A697B68942011461A4606F0D1
:1037D00057F902F0E1FE7B69002B01D1FCF788FE6E
:1037E0007B6918462037BD4680BD00BFB43001203C
:1037F000F72B0100A4300120AC300120380000205C
:1038000080B586B000AF78607B683B617B68002B39
:1038100030D008235B423A6913443B613B69FB604B
:1038200002F0ACFEFB685B68BB60144B7B6102E09E
:103830007B691B687B617B691B685A68BB689A421D
:10384000F6D37B691A68FB681A607B69FA681A60AC
:10385000FB685A680A4B1B681344094A13607A686C
:10386000FB685B685B42962011461A4606F008F931
:1038700002F092FE1837BD4680BD00BFA430012083
:103880003800002080B400AF034B1B681846BD46CB
:103890005DF8047B704700BF3800002080B400AFA3
:1038A000BD465DF8047B704780B483B000AF0E4B1B
:1038B00023F007037B600D4A7B6813600B4B0022EB
:1038C0005A600B4B0B4A5A60094B00221A607B6806
:1038D0003B603B68074A5A603B68054A1A600C37F0
:1038E000BD465DF8047B7047AC040020A430012085
:1038F000AC300120F82B010080B582B000AF1C2055
:10390000FFF7E0FE78607B68002B19D07B6800220F
:103910001A607B680433184600F084FB062006F02A
:103920003BFF03461A467B689A61786800F064FBA7
:103930000346DBB2C22006211A4606F035F904E040
:10394000C3200621002206F02FF97B6818460837AD
:10395000BD4680BD80B58CB000AFF860B9607A60BC
:103960003B60FB687B620023BB627B6803F07F43A4
:10397000002B09D04FF0500383F31188BFF36F8FF2
:10398000BFF34F8FBB61FEE77B68002B09D14FF07F
:10399000500383F31188BFF36F8FBFF34F8F7B61A9
:1039A000FEE703F0B9FC0346002B02D13B68002B75
:1039B00001D1012300E00023002B09D14FF0500377
:1039C00083F31188BFF36F8FBFF34F8F3B61FEE727
:1039D00002F0D4FD7B6A1B683B62F868B96800F0AE
:1039E000E9F93A6ABB681A437B681A407B689A42D5
:1039F0000DD13A6ABB681343FB627B6A1A687B6825
:103A0000DB431A407B6A1A6000233B601DE03B6881
:103A1000002B17D0F86800F0EFFA0346DBB2C420A1
:103A200006211A467B6806F061F97B6A1A1D7B68DD
:103A300043F0A063104619463A6803F0BFF800232C
:103A4000FB6202E07B6A1B68FB6202F0A5FDF86185
:103A50003B68002B2CD0FB69002B07D1244B4FF087
:103A600080521A60BFF34F8FBFF36F8F03F0C2FD18
:103A7000F862FB6A03F00073002B15D1FFF738FDE5
:103A80007B6A1B68FB62FA6A7B681A407B689A4211
:103A900006D17B6A1A687B68DB431A407B6A1A602E
:103AA000FFF754FD0123BB62FB6A23F07F43FB62F7
:103AB000BB6A002B0BD0F86800F09EFA0346DBB21D
:103AC000CC2006211A467B6806F010F90AE0F86857
:103AD00000F092FA0346DBB2C52006211A467B6845
:103AE00006F004F9FB6A18463037BD4680BD00BFBA
:103AF00004ED00E080B590B000AFF860B9607A6086
:103B00003B60FB683B630023BB6300237B63FB6874
:103B1000002B09D14FF0500383F31188BFF36F8F4F
:103B2000BFF34F8F3B62FEE7BB6803F07F43002B80
:103B300009D04FF0500383F31188BFF36F8FBFF3A9
:103B40004F8FFB61FEE7BB68002B09D14FF050039C
:103B500083F31188BFF36F8FBFF34F8FBB61FEE715
:103B600003F0DAFB0346002B02D1BB6C002B01D122
:103B7000012300E00023002B09D14FF0500383F311
:103B80001188BFF36F8FBFF34F8F7B61FEE702F0A9
:103B9000F5FC3B6B1B68FB62F86AB9683A6800F099
:103BA00009FAB862BB6A002B0ED0FB6AFB630023E4
:103BB000BB647B68002B3CD03B6B1A68BB68DB4363
:103BC0001A403B6B1A6034E0BB6C002B02D1FB6ADD
:103BD000FB632EE07B68002B03D0BB6B43F080734C
:103BE000BB633B68002B03D0BB6B43F08063BB63BC
:103BF0003B6B191DBA68BB6B134308461946BA6C78
:103C000002F0DCFF0023FB63F86800F0F5F90346DF
:103C1000DBB2C62006211A46BB6806F067F804F03E
:103C2000ADFD0346184604F0CBFD0346184606F0EA
:103C300011FC02F0B1FC7862BB6C002B31D07B6AC6
:103C4000002B07D1264B4FF080521A60BFF34F8FE5
:103C5000BFF36F8F03F0CEFCF863FB6B03F00073D0
:103C6000002B1AD1FFF744FC3B6B1B68FB63F86B1E
:103C7000B9683A6800F09EF90346002B09D07B68CA
:103C8000002B06D03B6B1A68BB68DB431A403B6BCA
:103C90001A60FFF75BFC00237B63FB6B23F07F4321
:103CA000FB637B6B002B0BD0F86800F0A5F9034693
:103CB000DBB2CD2006211A46BB6806F017F80AE0F1
:103CC000F86800F099F90346DBB2C72006211A46CE
:103CD000BB6806F00BF8FB6B18464037BD4680BD4D
:103CE00004ED00E080B586B000AF786039607B6895
:103CF0007B617B68002B09D14FF0500383F311885F
:103D0000BFF36F8FBFF34F8FFB60FEE73B6803F09D
:103D10007F43002B09D04FF0500383F31188BFF38A
:103D20006F8FBFF34F8FBB60FEE7FFF7E1FB3B6890
:103D3000002B0AD0786800F05FF90346DBB2C82098
:103D400006211A463B6805F0D1FF7B691B683B6181
:103D50007B691A683B68DB431A407B691A60FFF78E
:103D6000F5FB3B6918461837BD4680BD80B489B065
:103D700000AF78607B68FB61EFF311824FF0500376
:103D800083F31188BFF36F8FBFF34F8F3A61FB60EE
:103D90003B69BB61FB691B687B61BB69BB60BB683E
:103DA00083F311887B6918462437BD465DF8047B90
:103DB000704700BF80B58EB000AF786039600023D7
:103DC0003B637B68BB620023FB627B68002B09D1ED
:103DD0004FF0500383F31188BFF36F8FBFF34F8F02
:103DE0003B61FEE73B6803F07F43002B09D04FF0B7
:103DF000500383F31188BFF36F8FBFF34F8FFB60C6
:103E0000FEE7BB6A04337B627B6A08333B6202F0E5
:103E1000B5FB786800F0F0F80346DBB2CA20062153
:103E20001A463B6805F062FF7B6ADB687B63BB6A0E
:103E30001A683B681A43BB6A1A603CE07B6B5B689C
:103E4000FB617B6B1B68BB610023FB62BB6903F0FA
:103E50007F437B61BB6923F07F43BB617B6903F0D8
:103E60008063002B08D1BB6A1A68BB691340002B22
:103E70000BD00123FB6208E0BB6A1A68BB691A40D9
:103E8000BB699A4201D10123FB62FB6A002B10D06F
:103E90007B6903F08073002B03D03A6BBB6913433B
:103EA0003B63BB6A1B6843F00073786B194602F0F2
:103EB0006FFFFB697B637A6B3B6A9A42BED1BB6A38
:103EC0001A683B6BDB431A40BB6A1A6002F064FB62
:103ED000BB6A1B6818463837BD4680BD80B586B0C2
:103EE00000AF78607B687B617B6904333B6102F0E3
:103EF00045FB786800F080F80346DBB2CB20062152
:103F00001A4605F051FE786800F076F80346DBB2F9
:103F10001846062106F0F2F8786800F06DF80346BE
:103F2000DBB21846062106F03BF9786800F064F829
:103F30000346DBB20620194606F054FD16E03B6945
:103F4000DA683B6908339A4209D14FF0500383F392
:103F50001188BFF36F8FBFF34F8FFB60FEE73B69A4
:103F6000DB6818464FF0007102F012FF3B691B68D6
:103F7000002BE4D17869FFF743FC02F00DFB183702
:103F8000BD4680BD80B582B000AF7860396078688A
:103F90003968FFF70FFF0837BD4680BD80B582B096
:103FA00000AF7860396078683968FFF79BFE0837A2
:103FB000BD4680BD80B487B000AFF860B9607A605C
:103FC00000237B617B68002B07D1FA68BB68134034
:103FD000002B0AD001237B6107E0FA68BB681A4016
:103FE000BB689A4201D101237B617B6918461C376B
:103FF000BD465DF8047B704780B485B000AF786043
:104000007B68BB607B68002B02D10023FB6002E071
:10401000BB689B69FB60FB6818461437BD465DF8BA
:10402000047B704780B483B000AF78607B6803F195
:1040300008027B685A607B684FF0FF329A607B68A9
:1040400003F108027B68DA607B6803F108027B6891
:104050001A617B6800221A600C37BD465DF8047B4C
:10406000704700BF80B483B000AF78607B680022E7
:104070001A610C37BD465DF8047B704780B485B08B
:1040800000AF786039607B685B68FB603B68FA680A
:104090005A60FB689A683B689A60FB689B683A685C
:1040A0005A60FB683A689A603B687A681A617B6874
:1040B0001B685A1C7B681A601437BD465DF8047B88
:1040C000704700BF80B485B000AF786039603B684E
:1040D0001B68BB60BB68B3F1FF3F03D17B681B6902
:1040E000FB600CE07B680833FB6002E0FB685B6808
:1040F000FB60FB685B681A68BB689A42F6D9FB688C
:104100005A683B685A603B685B683A689A603B68EB
:10411000FA689A60FB683A685A603B687A681A6184
:104120007B681B685A1C7B681A601437BD465DF8B3
:10413000047B704780B485B000AF78607B681B69F2
:10414000FB607B685B687A6892689A607B689B68B2
:104150007A6852685A60FB685A687B689A4203D151
:104160007B689A68FB685A607B6800221A61FB686A
:104170001B685A1EFB681A60FB681B6818461437D8
:10418000BD465DF8047B704780B584B000AF7860B1
:1041900039607B68FB60FB68002B09D14FF050034E
:1041A00083F31188BFF36F8FBFF34F8FBB60FEE7C0
:1041B000FFF79EF9FB681A68FB68DB6BF968096C0E
:1041C00001FB03F31A44FB685A60FB6800229A6300
:1041D000FB681A68FB689A60FB681A68FB68DB6B0F
:1041E000013BF968096C01FB03F31A44FB68DA60D0
:1041F000FB68FF2283F84420FB68FF2283F84520F8
:104200003B68002B14D1FB681B69002B1AD0FB689C
:104210001033184602F052FD0346002B12D00D4B0E
:104220004FF080521A60BFF34F8FBFF36F8F09E0DA
:10423000FB6810331846FFF7F5FEFB682433184679
:10424000FFF7F0FEFFF782F9012318461037BD464D
:1042500080BD00BF04ED00E090B58BB002AFF86008
:10426000B9601346FB71FB68002B09D14FF0500376
:1042700083F31188BFF36F8FBFF34F8F3B61FEE76E
:10428000BB68002B02D10023FB6104E0FB68BA6825
:1042900002FB03F3FB61FB6950331846FFF712FA88
:1042A000B861BB69002B0BD0BB6950337B61FC79D3
:1042B000BB690093F868B9687A69234600F006F88C
:1042C000BB6918462437BD4690BD00BFB0B584B069
:1042D00000AFF860B9607A60FB70BB68002B03D157
:1042E0003B6A3A6A1A6002E03B6A7A681A603B6A83
:1042F000FA68DA633B6ABA681A64386A0121FFF720
:1043000043FF3B6AFA7883F84C20386A04F04CFA91
:1043100003461A46224B9B5C184606F03DFA0346BC
:104320001A463B6A9A64386A04F03EFA03461A4613
:104330001B4B9C5C386A04F029FA03462046194658
:1043400006F0A2FB386A04F02FFA03461A46144B13
:104350009B5C1833DBB21D46386A04F025FA03462D
:104360001A460F4B9C5C386A04F010FA0346284644
:1043700021461A4605F018FC386A04F015FA03467F
:104380001A46074B9C5C386A04F000FA0346204644
:104390001946002205F0E6FF1037BD46B0BD00BF4C
:1043A0003C00002080B582B000AF78607B68002BB5
:1043B0000ED07B6800225A607B6800221A607B68FE
:1043C0000022DA60786800210022002300F0D6F88D
:1043D0000837BD4680BD00BF80B586B000AF03463C
:1043E000FB7101237B6100233B61FB7978693969AB
:1043F0001A46FFF731FFF860F868FFF7D3FFFB6854
:1044000018461837BD4680BDB0B586B000AF78609D
:104410007B683B613B69002B09D14FF0500383F36C
:104420001188BFF36F8FBFF34F8FFB60FEE73B69CF
:104430005C6802F061FF03469C4211D13B69DB6876
:104440005A1E3B69DA603B69DB68002B05D138698D
:1044500000210022002300F091F801237B611BE082
:1044600000237B61386904F09FF903461A460D4B1F
:104470009B5C4833DBB21D46386904F095F903466E
:104480001A46084B9C5C386904F080F903462846BC
:1044900021461A4605F088FB7B6918461837BD4649
:1044A000B0BD00BF3C00002090B587B000AF786081
:1044B00039607B683B613B69002B09D14FF05003A9
:1044C00083F31188BFF36F8FBFF34F8FFB60FEE75D
:1044D0003B695C6802F010FF03469C4207D13B69D0
:1044E000DB685A1C3B69DA6001237B610EE03869A6
:1044F00000213A68002300F081FB78617B69002B82
:1045000004D03B69DB685A1C3B69DA607B6918465A
:104510001C37BD4690BD00BF80B586B000AF786047
:1045200039607B68002B09D14FF0500383F3118869
:10453000BFF36F8FBFF34F8F3B61FEE73A687B6835
:104540009A4209D94FF0500383F31188BFF36F8F5C
:10455000BFF34F8FFB60FEE7786800210222FFF770
:104560007BFE78617B69002B02D07B693A689A6395
:104570007B6918461837BD4680BD00BFB0B58EB008
:1045800000AFF860B9607A603B6000237B63FB6832
:104590003B633B6B002B09D14FF0500383F3118831
:1045A000BFF36F8FBFF34F8FBB62FEE7BB68002B7B
:1045B00003D13B6B1B6C002B01D1012300E00023D6
:1045C000002B09D14FF0500383F31188BFF36F8F95
:1045D000BFF34F8F7B62FEE73B68022B03D13B6B3F
:1045E000DB6B012B01D1012300E00023002B09D15B
:1045F0004FF0500383F31188BFF36F8FBFF34F8FDA
:104600003B62FEE702F088FE0346002B02D17B6886
:10461000002B01D1012300E00023002B09D14FF032
:10462000500383F31188BFF36F8FBFF34F8FFB618C
:10463000FEE7FEF75DFF3B6B9A6B3B6BDB6B9A42D1
:1046400002D33B68022B64D1386B04F0ADF803460B
:104650001A468D4B9B5C2033DBB21D46386B04F051
:10466000A3F803461A46884B9C5C386B04F08EF81E
:104670000346284621461A4605F096FA386B04F0A0
:1046800093F803461A46804B9C5C386B04F07EF826
:1046900003461D46386B04F087F803461A467A4BEA
:1046A0009B5C022B05D03B6B9B6BDBB20133DBB217
:1046B00000E00023204629461A4605F053FE386BD9
:1046C000B9683A6800F098FEF8623B6B5B6A002BB1
:1046D00010D03B6B2433184602F0F0FA0346002B4F
:1046E00013D06A4B4FF080521A60BFF34F8FBFF365
:1046F0006F8F0AE0FB6A002B07D0644B4FF08052AB
:104700001A60BFF34F8FBFF36F8FFEF71FFF0123B8
:10471000B5E07B68002B1DD1FEF718FF386B04F065
:1047200043F803461A46584B9B5C4833DBB21D46A0
:10473000386B04F039F803461A46534B9C5C386BCF
:1047400004F024F80346284621461A4605F02CFAC0
:10475000002394E07B6B002B06D107F1140318466D
:1047600002F084FB01237B63FEF7F0FE01F006FFFD
:10477000FEF7BEFE3B6B93F84430DBB25BB2B3F1A5
:10478000FF3F03D13B6B002283F844203B6B93F83F
:104790004530DBB25BB2B3F1FF3F03D13B6B00228C
:1047A00083F84520FEF7D2FE07F114023B1D1046A8
:1047B000194602F07DFB0346002B3ED1386B00F01A
:1047C00037FF0346002B32D0386B03F0EDFF034672
:1047D0001A462D4B9B5C7033DBB21D46386B03F0E1
:1047E000E3FF03461A46284B9C5C386B03F0CEFF70
:1047F0000346284621461A4605F0D6F93B6B03F1DD
:1048000010027B681046194602F0B6F9386B00F0CA
:1048100085FE01F0C1FE0346002B2FD11B4B4FF04C
:1048200080521A60BFF34F8FBFF36F8F26E0386B53
:1048300000F074FE01F0B0FEFBE6386B00F06EFE97
:1048400001F0AAFE386B03F0AFFF03461A460E4B89
:104850009B5C4833DBB21D46386B03F0A5FF034673
:104860001A46094B9C5C386B03F090FF03462846C0
:1048700021461A4605F098F9002300E0D9E61846CB
:104880003837BD46B0BD00BF3C00002004ED00E05D
:10489000B0B58EB000AFF860B9607A603B60FB687D
:1048A0003B633B6B002B09D14FF0500383F311881E
:1048B000BFF36F8FBFF34F8F7B62FEE7BB68002BA8
:1048C00003D13B6B1B6C002B01D1012300E00023C3
:1048D000002B09D14FF0500383F31188BFF36F8F82
:1048E000BFF34F8F3B62FEE73B68022B03D13B6B6C
:1048F000DB6B012B01D1012300E00023002B09D148
:104900004FF0500383F31188BFF36F8FBFF34F8FC6
:10491000FB61FEE7FEF798FEEFF311824FF05003C4
:1049200083F31188BFF36F8FBFF34F8FBA617B6141
:10493000BB69FB623B6B9A6B3B6BDB6B9A4202D3AE
:104940003B68022B5CD13B6B93F8453087F82B30EA
:10495000386B03F029FF03461A463C4B9B5C30330F
:10496000DBB21D46386B03F01FFF03461A46374B78
:104970009C5C386B03F00AFF0346284621461A4622
:1049800005F012F9386B03F00FFF03461A462F4B60
:104990009C5C386B03F0FAFE03461A463B6B9B6B3C
:1049A000DBB20133DBB2204611461A4605F0DAFCD1
:1049B000386BB9683A6800F01FFD97F92B30B3F1F6
:1049C000FF3F12D13B6B5B6A002B16D03B6B24334D
:1049D000184602F073F90346002B0ED07B68002BBB
:1049E0000BD07B6801221A6007E097F82B30013367
:1049F000DBB2DAB23B6B83F8452001237B631BE01B
:104A0000386B03F0D1FE03461A46104B9B5C5833BB
:104A1000DBB21D46386B03F0C7FE03461A460B4B4C
:104A20009C5C386B03F0B2FE0346284621461A46CA
:104A300005F0BAF800237B63FB6A3B613B6983F3B3
:104A400011887B6B18463837BD46B0BD3C0000204E
:104A5000B0B58EB000AF786039607B683B633B6B6C
:104A6000002B09D14FF0500383F31188BFF36F8FF0
:104A7000BFF34F8F3B62FEE73B6B1B6C002B09D0F3
:104A80004FF0500383F31188BFF36F8FBFF34F8F45
:104A9000FB61FEE73B6B1B68002B03D13B6B5B6844
:104AA000002B01D1012300E00023002B09D14FF09E
:104AB000500383F31188BFF36F8FBFF34F8FBB6138
:104AC000FEE7FEF7C1FDEFF311824FF0500383F3D1
:104AD0001188BFF36F8FBFF34F8F7A613B617B69A2
:104AE000FB623B6B9B6BBB623B6BDA6BBB6A9A42B4
:104AF0005BD93B6B93F8453087F82730386B03F070
:104B000053FE03461A463C4B9B5C3033DBB21D46DA
:104B1000386B03F049FE03461A46374B9C5C386BF2
:104B200003F034FE0346284621461A4605F03CF8B9
:104B3000386B03F039FE03461A462F4B9C5C386BEA
:104B400003F024FE03461A463B6B9B6BDBB201333A
:104B5000DBB2204611461A4605F004FCBB6A5A1C1B
:104B60003B6B9A6397F92730B3F1FF3F12D13B6B50
:104B70005B6A002B16D03B6B2433184602F09EF87C
:104B80000346002B0ED03B68002B0BD03B68012264
:104B90001A6007E097F827300133DBB2DAB23B6BDB
:104BA00083F8452001237B631BE0386B03F0FCFD99
:104BB00003461A46104B9B5C5833DBB21D46386BDC
:104BC00003F0F2FD03461A460B4B9C5C386B03F076
:104BD000DDFD0346284621461A4604F0E5FF002382
:104BE0007B63FB6AFB60FB6883F311887B6B184671
:104BF0003837BD46B0BD00BF3C000020B0B58EB018
:104C000000AFF860B9607A603B6000237B63FB68AB
:104C10003B633B6B002B09D14FF0500383F31188AA
:104C2000BFF36F8FBFF34F8F7B62FEE7BB68002B34
:104C300003D13B6B1B6C002B01D1012300E000234F
:104C4000002B09D14FF0500383F31188BFF36F8F0E
:104C5000BFF34F8F3B62FEE702F05EFB0346002B83
:104C600002D17B68002B01D1012300E00023002B3F
:104C700009D14FF0500383F31188BFF36F8FBFF357
:104C80004F8FFB61FEE7FEF733FC3B6B9B6BFB62D8
:104C9000FB6A002B00F0A2803B6BDB68BB62386BC9
:104CA000B96800F015FC3B68002B62D1386B03F04B
:104CB0007BFD03461A46B94B9B5C2833DBB21D468D
:104CC000386B03F071FD03461A46B44B9C5C386B9D
:104CD00003F05CFD0346284621461A4604F064FFB3
:104CE000386B03F061FD03461A46AC4B9C5C386B95
:104CF00003F04CFD03461D46386B03F055FD03469B
:104D00001A46A64B9B5C022B07D103F037FD0346E6
:104D1000184603F055FD034604E03B6B9B6BDBB28A
:104D2000013BDBB2204629461A4605F01BFBFB6A15
:104D30005A1E3B6B9A633B6B1B68002B04D102F03D
:104D400071FC02463B6B5A603B6B1B69002B41D0E8
:104D50003B6B1033184601F0B1FF0346002B39D0EE
:104D60008F4B4FF080521A60BFF34F8FBFF36F8F9E
:104D700030E0386B03F018FD03461A46874B9B5C06
:104D80007833DBB21D46386B03F00EFD03461A463E
:104D9000824B9C5C386B03F0F9FC034628462146A5
:104DA0001A4604F001FF3B6BBA6ADA603B6B5B6A40
:104DB000002B0FD03B6B2433184601F07FFF0346D6
:104DC000002B07D0764B4FF080521A60BFF34F8F05
:104DD000BFF36F8FFEF7BAFB0123DBE07B68002B8C
:104DE0001DD1FEF7B3FB386B03F0DEFC03461A4619
:104DF0006A4B9B5C5033DBB21D46386B03F0D4FC2E
:104E000003461A46654B9C5C386B03F0BFFC0346B7
:104E1000284621461A4604F0C7FE0023BAE07B6B01
:104E2000002B06D107F11403184602F01FF80123E6
:104E30007B63FEF78BFB01F0A1FBFEF759FB3B6B9D
:104E400093F84430DBB25BB2B3F1FF3F03D13B6B6D
:104E5000002283F844203B6B93F84530DBB25BB211
:104E6000B3F1FF3F03D13B6B002283F84520FEF7EF
:104E70006DFB07F114023B1D1046194602F018F8AD
:104E80000346002B5ED1386B00F09AFB0346002BE3
:104E900052D0386B03F088FC03461A463F4B9B5CAC
:104EA0006833DBB21D46386B03F07EFC03461A46BE
:104EB0003A4B9C5C386B03F069FC0346284621465C
:104EC0001A4604F071FE386B03F06EFC03461A4676
:104ED000324B9B5C022B09D003F050FC0346184672
:104EE00003F06EFC0346184605F0B4FA3B6B1B68F2
:104EF000002B08D1FEF7FCFA3B6B5B68184602F00A
:104F000029FAFEF723FB3B6B03F124027B68104672
:104F1000194601F031FE386B00F000FB01F03CFB5C
:104F20000346002B35D11E4B4FF080521A60BFF361
:104F30004F8FBFF36F8F2CE0386B00F0EFFA01F06A
:104F40002BFBA0E6386B00F0E9FA01F025FB386B8B
:104F500000F036FB0346002B1BD0386B03F024FC1B
:104F600003461A460D4B9B5C5033DBB21D46386B33
:104F700003F01AFC03461A46084B9C5C386B03F09E
:104F800005FC0346284621461A4604F00DFE002380
:104F900000E078E618463837BD46B0BD3C0000203A
:104FA00004ED00E0B0B58EB000AFF860B9607A6093
:104FB000FB683B633B6B002B09D14FF0500383F33D
:104FC0001188BFF36F8FBFF34F8F3B62FEE7BB6863
:104FD000002B03D13B6B1B6C002B01D1012300E0A4
:104FE0000023002B09D14FF0500383F31188BFF346
:104FF0006F8FBFF34F8FFB61FEE7FEF725FBEFF3EB
:1050000011824FF0500383F31188BFF36F8FBFF30A
:105010004F8FBA617B61BB69FB623B6B9B6BBB6271
:10502000BB6A002B5FD03B6B93F8443087F8273086
:10503000386B03F0B9FB03461A463E4B9B5C383392
:10504000DBB21D46386B03F0AFFB03461A46394B03
:105050009C5C386B03F09AFB0346284621461A46AF
:1050600004F0A2FD386B03F09FFB03461A46314B58
:105070009C5C386B03F08AFB03461A463B6B9B6BC8
:10508000DBB2013BDBB2204611461A4605F06AF955
:10509000386BB96800F01CFABB6A5A1E3B6B9A6306
:1050A00097F92730B3F1FF3F12D13B6B1B69002BFF
:1050B00016D03B6B1033184601F000FE0346002B60
:1050C0000ED07B68002B0BD07B6801221A6007E0B2
:1050D00097F827300133DBB2DAB23B6B83F8442018
:1050E00001237B631BE000237B63386B03F05CFBD5
:1050F00003461A460F4B9B5C6033DBB21D46386B90
:1051000003F052FB03461A460A4B9C5C386B03F0D3
:105110003DFB0346284621461A4604F045FDFB6A3E
:105120003B613B6983F311887B6B18463837BD467A
:10513000B0BD00BF3C00002080B58CB000AF7860EF
:1051400039607B68BB62BB6A002B09D14FF050030A
:1051500083F31188BFF36F8FBFF34F8FFB61FEE7BF
:105160003B68002B03D1BB6A1B6C002B01D10123D0
:1051700000E00023002B09D14FF0500383F3118886
:10518000BFF36F8FBFF34F8FBB61FEE7BB6A1B6C32
:10519000002B09D14FF0500383F31188BFF36F8FB9
:1051A000BFF34F8F7B61FEE7FEF74EFAEFF31182FC
:1051B0004FF0500383F31188BFF36F8FBFF34F8F0E
:1051C0003A61FB603B697B62BB6A9B6B002B0CD036
:1051D000BB6ADB683B62B86A396800F079F9BB6A80
:1051E0003A6ADA600123FB6201E00023FB627B6A1A
:1051F000BB60BB6883F31188FB6A18463037BD4635
:1052000080BD00BF80B584B000AF78607B68002BA4
:1052100009D14FF0500383F31188BFF36F8FBFF3B1
:105220004F8FBB60FEE7FEF763F97B689B6BFB600B
:10523000FEF78CF9FB6818461037BD4680BD00BFED
:1052400080B586B000AF78607B687B617B69002B9E
:1052500009D14FF0500383F31188BFF36F8FBFF371
:105260004F8FFB60FEE7FEF743F97B69DA6B7B69E2
:105270009B6BD31A3B61FEF769F93B6918461837F7
:10528000BD4680BD80B485B000AF78607B68002BE0
:1052900009D14FF0500383F31188BFF36F8FBFF331
:1052A0004F8FBB60FEE77B689B6BFB60FB6818461B
:1052B0001437BD465DF8047B704700BFB0B588B0B9
:1052C00000AF78607B68FB61FB69002B09D14FF070
:1052D000500383F31188BFF36F8FBFF34F8F7B6150
:1052E000FEE7EFF310833B613B69BB610123FB6089
:1052F000FB6883F31088F86903F056FA03461A46F0
:10530000284B9B5C803BDBB21D46F86903F04CFAEE
:1053100003461A46234B9C5CF86903F037FA0346B0
:10532000284621461A4604F03FFCF86903F02EFA9D
:1053300003461C46F86903F037FA03461A46194B30
:105340009B5C2046194604F0D9FEF86903F01EFA6A
:1053500003461C46F86903F027FA03461A46114B28
:105360009B5C2046194604F01BFFF86903F01CFA09
:1053700003461A460B4B9C5CF86903F007FA034698
:105380002046194605F02EFBBB69BB60BB6883F362
:105390001088F86900F0E6F9F869FEF731FA20376D
:1053A000BD46B0BD3C00002080B483B000AF786043
:1053B0007B689B6C18460C37BD465DF8047B7047D4
:1053C00080B483B000AF786039607B683A689A64D3
:1053D0000C37BD465DF8047B704700BF80B483B0D6
:1053E00000AF78607B6893F84C3018460C37BD46A8
:1053F0005DF8047B704700BF80B586B000AFF860F1
:10540000B9607A6000237B61FB689B6B3B61FB6842
:105410001B6C002B0DD1FB681B68002B4FD1FB6868
:105420005B68184602F038F87861FB6800225A6021
:1054300045E07B68002B1AD1FB689A68FB681B6CFF
:105440001046B9681A4605F0FFFFFB689A68FB68CA
:105450001B6C1A44FB689A60FB689A68FB685B687F
:105460009A422CD3FB681A68FB689A6027E0FB68B5
:10547000DA68FB681B6C1046B9681A4605F0E4FF51
:10548000FB68DA68FB681B6C5B421A44FB68DA60F5
:10549000FB68DA68FB681B689A4207D2FB685A68A7
:1054A000FB681B6C5B421A44FB68DA607B68022B6A
:1054B00005D13B69002B02D03B69013B3B613B6955
:1054C0005A1CFB689A637B6918461837BD4680BD35
:1054D00080B582B000AF786039607B681B6C002BB0
:1054E00019D07B68DA687B681B6C1A447B68DA60C9
:1054F0007B68DA687B685B689A4203D37B681A68CA
:105500007B68DA607B68DA687B681B6C38681146F8
:105510001A4605F099FF0837BD4680BD80B584B0B6
:1055200000AF7860FDF7E4FF7B6893F84530FB73CC
:1055300013E07B685B6A002B0AD07B682433184633
:1055400001F0BCFB0346002B03D001F00FFD00E08F
:1055500007E0FB7B013BDBB2FB7397F90F30002BBD
:10556000E7DC7B68FF2283F84520FDF7EFFFFDF7BE
:10557000BFFF7B6893F84430BB7313E07B681B6903
:10558000002B0ED07B681033184601F097FB0346C2
:10559000002B01D001F0EAFCBB7B013BDBB2BB730B
:1055A00000E003E097F90E30002BE7DC7B68FF2278
:1055B00083F84420FDF7CAFF1037BD4680BD00BF09
:1055C00080B584B000AF7860FDF792FF7B689B6B7D
:1055D000002B02D10123FB6001E00023FB60FDF7FB
:1055E000B5FFFB6818461037BD4680BD80B485B056
:1055F00000AF78607B68002B09D14FF0500383F334
:105600001188BFF36F8FBFF34F8FBB60FEE77B68DE
:105610009B6B002B02D10123FB6001E00023FB60A8
:10562000FB6818461437BD465DF8047B704700BF21
:1056300080B584B000AF7860FDF75AFF7B689A6B45
:105640007B68DB6B9A4202D10123FB6001E00023FF
:10565000FB60FDF77BFFFB6818461037BD4680BD39
:1056600080B485B000AF78607B68002B09D14FF023
:10567000500383F31188BFF36F8FBFF34F8FBB606D
:10568000FEE77B689A6B7B68DB6B9A4202D1012351
:10569000FB6001E00023FB60FB6818461437BD4641
:1056A0005DF8047B704700BF90B585B000AF7860AF
:1056B00039600023FB6024E0154AFB6852F8333060
:1056C000002B1BD11249FB683A6841F83320104A7D
:1056D000FB68DB0013447A685A60786803F064F86A
:1056E00003461A460B4B9C5C786803F04FF8034660
:1056F000204619463A6805F007FA05E0FB680133D1
:10570000FB60FB68072BD7D91437BD4690BD00BF9F
:10571000303301203C00002080B485B000AF7860B9
:105720000023BB600023FB6010E00D4AFB68DB0038
:1057300013445A687B689A4205D1094AFB6852F8BB
:105740003330BB6005E0FB680133FB60FB68072B6F
:10575000EBD9BB6818461437BD465DF8047B70472B
:105760003033012080B485B000AF78600023FB6047
:1057700016E00F4AFB68DB0013445A687B689A42C4
:105780000BD10B4AFB68002142F83310084AFB6832
:10579000DB00134400225A6005E0FB680133FB6024
:1057A000FB68072BE5D91437BD465DF8047B7047CD
:1057B0003033012080B586B000AFF860B9607A6000
:1057C000FB687B61FDF794FE7B6993F84430DBB2A4
:1057D0005BB2B3F1FF3F03D17B69002283F8442021
:1057E0007B6993F84530DBB25BB2B3F1FF3F03D185
:1057F0007B69002283F84520FDF7A8FE7B699B6B3F
:10580000002B06D17B6924331846B9687A6801F009
:105810000FFA7869FFF782FE1837BD4680BD00BFDA
:1058200080B58CB004AFF860B9603B601346FB8074
:10583000FB889B001846FDF745FF78617B69002BCC
:105840000ED05820FDF73EFFF861FB69002B03D016
:10585000FB697A691A6305E07869FDF7D1FF01E019
:105860000023FB61FB69002B13D0FA88BB6A00930D
:10587000FB6A0193FB69029300230393F868B968FC
:105880003B6800F00FF8F86900F092F80123BB6163
:1058900002E04FF0FF33BB61BB6918462037BD46BD
:1058A00080BD00BF80B588B000AFF860B9607A6095
:1058B0003B603B6B1A6B7B689B001046A5211A4628
:1058C00005F0D4FE3B6B1A6B7B6803F18043013B10
:1058D0009B001344BB61BB6923F00703BB61BB6939
:1058E00003F00703002B09D04FF0500383F3118816
:1058F000BFF36F8FBFF34F8F7B61FEE70023FB6128
:1059000013E0BA68FB69134419783A6BFB691344D6
:1059100030330A461A71BA68FB6913441B78002BAE
:1059200000D105E0FB690133FB61FB69092BE8D974
:105930003B6B002283F83D20BB6A042B01D9042372
:10594000BB623B6BBA6ADA623B6BBA6A9A643B6BC6
:105950000022DA643B6B04331846FEF783FB3B6B93
:1059600018331846FEF77EFB3B6B3A6B1A61BB6A35
:10597000C3F105023B6B9A613B6B3A6B5A623B6B1E
:1059800000221A653B6B002283F85420B869F9683D
:105990003A68FDF7C5FC02463B6B1A60FB6A002BB8
:1059A00002D0FB6A3A6B1A602037BD4680BD00BF4B
:1059B00080B582B000AF7860FDF79AFD464B1B685A
:1059C0000133454A1360454B1B68002B09D1434AFC
:1059D0007B681360404B1B68012B10D101F014FB56
:1059E0000DE03F4B1B68002B09D13C4B1B68DA6A6A
:1059F0007B68DB6A9A4202D8384A7B681360394B6D
:105A00001B680133374A1360364B1A687B681A6487
:105A10007B68002B28D0032004F0BEFE03461A4604
:105A20007B685A64786802F0CBFE03461A467B68AE
:105A30003433032011461A4605F066F8786802F000
:105A4000BFFE03461A467B68DB6ADBB203201146C1
:105A50001A4604F00DFC786802F0B2FE03461B20E3
:105A600003211A4604F0A0F8786802F0A9FE034664
:105A7000184603F03DFF7B68DB6A1A46012303FAF0
:105A800002F2194B1B681343174A13607B68DA6AEA
:105A900013469B0013449B00144A1A447B6804334A
:105AA00010461946FEF7EAFAFDF750FD0C4B1B684D
:105AB000002B0ED0094B1B68DA6A7B68DB6A9A42BE
:105AC00007D20B4B4FF080521A60BFF34F8FBFF3DA
:105AD0006F8F0837BD4680BD90310120B83001205E
